{
  "_format": "hh-sol-artifact-1",
  "contractName": "Agreement",
  "sourceName": "contracts/Agreement.sol",
  "abi": [
    {
      "inputs": [],
      "stateMutability": "nonpayable",
      "type": "constructor"
    },
    {
      "inputs": [
        {
          "internalType": "string",
          "name": "_lender",
          "type": "string"
        },
        {
          "internalType": "string",
          "name": "_tenant",
          "type": "string"
        },
        {
          "internalType": "string",
          "name": "_agreementID",
          "type": "string"
        }
      ],
      "name": "checkLenderTenant",
      "outputs": [
        {
          "internalType": "bool",
          "name": "",
          "type": "bool"
        }
      ],
      "stateMutability": "view",
      "type": "function"
    },
    {
      "inputs": [
        {
          "internalType": "string",
          "name": "_agreementID",
          "type": "string"
        }
      ],
      "name": "getAgreement",
      "outputs": [
        {
          "internalType": "string",
          "name": "",
          "type": "string"
        }
      ],
      "stateMutability": "view",
      "type": "function"
    },
    {
      "inputs": [
        {
          "internalType": "string",
          "name": "_agreementID",
          "type": "string"
        },
        {
          "internalType": "string",
          "name": "_lender",
          "type": "string"
        },
        {
          "internalType": "string",
          "name": "_tenant",
          "type": "string"
        },
        {
          "internalType": "string",
          "name": "_data",
          "type": "string"
        }
      ],
      "name": "makeAgreement",
      "outputs": [],
      "stateMutability": "nonpayable",
      "type": "function"
    },
    {
      "inputs": [
        {
          "internalType": "string",
          "name": "_lender",
          "type": "string"
        },
        {
          "internalType": "string",
          "name": "_agreementID",
          "type": "string"
        }
      ],
      "name": "setLender",
      "outputs": [],
      "stateMutability": "nonpayable",
      "type": "function"
    },
    {
      "inputs": [
        {
          "internalType": "string",
          "name": "_tenant",
          "type": "string"
        },
        {
          "internalType": "string",
          "name": "_agreementID",
          "type": "string"
        }
      ],
      "name": "settenant",
      "outputs": [],
      "stateMutability": "nonpayable",
      "type": "function"
    }
  ],
  "bytecode": "0x608060405234801561001057600080fd5b50336000806101000a81548173ffffffffffffffffffffffffffffffffffffffff021916908373ffffffffffffffffffffffffffffffffffffffff160217905550610a92806100606000396000f3fe608060405234801561001057600080fd5b50600436106100575760003560e01c806324a94c121461005c578063443bb1f5146100785780635ff0869c146100a8578063b20546e0146100c4578063cdd82d1d146100e0575b600080fd5b61007660048036038101906100719190610670565b610110565b005b610092600480360381019061008d9190610747565b6101e7565b60405161009f9190610809565b60405180910390f35b6100c260048036038101906100bd9190610824565b61027a565b005b6100de60048036038101906100d99190610824565b610320565b005b6100fa60048036038101906100f5919061089c565b6103c7565b604051610107919061096d565b60405180910390f35b3373ffffffffffffffffffffffffffffffffffffffff1660008054906101000a900473ffffffffffffffffffffffffffffffffffffffff1673ffffffffffffffffffffffffffffffffffffffff161461016857600080fd5b6101738383866101e7565b6101b2576040517f08c379a00000000000000000000000000000000000000000000000000000000081526004016101a9906109db565b60405180910390fd5b80600360008680519060200120815260200190815260200160002090805190602001906101e0929190610473565b5050505050565b6000600160008580519060200120815260200190815260200160002060008380519060200120815260200190815260200160002060009054906101000a900460ff1680156102715750600260008480519060200120815260200190815260200160002060008380519060200120815260200190815260200160002060009054906101000a900460ff165b90509392505050565b3373ffffffffffffffffffffffffffffffffffffffff1660008054906101000a900473ffffffffffffffffffffffffffffffffffffffff1673ffffffffffffffffffffffffffffffffffffffff16146102d257600080fd5b60018060008480519060200120815260200190815260200160002060008380519060200120815260200190815260200160002060006101000a81548160ff0219169083151502179055505050565b3373ffffffffffffffffffffffffffffffffffffffff1660008054906101000a900473ffffffffffffffffffffffffffffffffffffffff1673ffffffffffffffffffffffffffffffffffffffff161461037857600080fd5b6001600260008480519060200120815260200190815260200160002060008380519060200120815260200190815260200160002060006101000a81548160ff0219169083151502179055505050565b6060600360008380519060200120815260200190815260200160002080546103ee90610a2a565b80601f016020809104026020016040519081016040528092919081815260200182805461041a90610a2a565b80156104675780601f1061043c57610100808354040283529160200191610467565b820191906000526020600020905b81548152906001019060200180831161044a57829003601f168201915b50505050509050919050565b82805461047f90610a2a565b90600052602060002090601f0160209004810192826104a157600085556104e8565b82601f106104ba57805160ff19168380011785556104e8565b828001600101855582156104e8579182015b828111156104e75782518255916020019190600101906104cc565b5b5090506104f591906104f9565b5090565b5b808211156105125760008160009055506001016104fa565b5090565b6000604051905090565b600080fd5b600080fd5b600080fd5b600080fd5b6000601f19601f8301169050919050565b7f4e487b7100000000000000000000000000000000000000000000000000000000600052604160045260246000fd5b61057d82610534565b810181811067ffffffffffffffff8211171561059c5761059b610545565b5b80604052505050565b60006105af610516565b90506105bb8282610574565b919050565b600067ffffffffffffffff8211156105db576105da610545565b5b6105e482610534565b9050602081019050919050565b82818337600083830152505050565b600061061361060e846105c0565b6105a5565b90508281526020810184848401111561062f5761062e61052f565b5b61063a8482856105f1565b509392505050565b600082601f8301126106575761065661052a565b5b8135610667848260208601610600565b91505092915050565b6000806000806080858703121561068a57610689610520565b5b600085013567ffffffffffffffff8111156106a8576106a7610525565b5b6106b487828801610642565b945050602085013567ffffffffffffffff8111156106d5576106d4610525565b5b6106e187828801610642565b935050604085013567ffffffffffffffff81111561070257610701610525565b5b61070e87828801610642565b925050606085013567ffffffffffffffff81111561072f5761072e610525565b5b61073b87828801610642565b91505092959194509250565b6000806000606084860312156107605761075f610520565b5b600084013567ffffffffffffffff81111561077e5761077d610525565b5b61078a86828701610642565b935050602084013567ffffffffffffffff8111156107ab576107aa610525565b5b6107b786828701610642565b925050604084013567ffffffffffffffff8111156107d8576107d7610525565b5b6107e486828701610642565b9150509250925092565b60008115159050919050565b610803816107ee565b82525050565b600060208201905061081e60008301846107fa565b92915050565b6000806040838503121561083b5761083a610520565b5b600083013567ffffffffffffffff81111561085957610858610525565b5b61086585828601610642565b925050602083013567ffffffffffffffff81111561088657610885610525565b5b61089285828601610642565b9150509250929050565b6000602082840312156108b2576108b1610520565b5b600082013567ffffffffffffffff8111156108d0576108cf610525565b5b6108dc84828501610642565b91505092915050565b600081519050919050565b600082825260208201905092915050565b60005b8381101561091f578082015181840152602081019050610904565b8381111561092e576000848401525b50505050565b600061093f826108e5565b61094981856108f0565b9350610959818560208601610901565b61096281610534565b840191505092915050565b600060208201905081810360008301526109878184610934565b905092915050565b7f4e6f7420612076616c69642061677265656d656e740000000000000000000000600082015250565b60006109c56015836108f0565b91506109d08261098f565b602082019050919050565b600060208201905081810360008301526109f4816109b8565b9050919050565b7f4e487b7100000000000000000000000000000000000000000000000000000000600052602260045260246000fd5b60006002820490506001821680610a4257607f821691505b60208210811415610a5657610a556109fb565b5b5091905056fea264697066735822122085d07d0a0c58e311b8f924866080485eba769edde6e8df657fff64ace19ff0f264736f6c634300080b0033",
  "linkReferences": {},
  "deployedLinkReferences": {}
}